:1000000005308A00062D0000FF00030E8301A100C9
:100010000A08A0008A010408A2007708A300780853
:10002000A4007908A5007A08A600831383128B1E0A
:100030001B280B192C28220884002308F700240809
:10004000F8002508F9002608FA0020088A00210E89
:100050008300FF0E7F0E09008A110A128628D02B1A
:100060004D10A519E412250020102015D02B4D109D
:10007000DA22D2272A102010000020102015D02BC1
:100080004D10DA22D2272A1020100000CC2042176F
:10009000C3274E2A2E22C923492A41260001D332E2
:1000A000EA302021E5362D2B6937E437210009108D
:1000B0004808880089146400891064000C30F70037
:1000C000F70B602863280800091451088800891478
:1000D0006400891064000C30F700F70B6D2870285D
:1000E00008004F08F8014E02031879284E08F7005F
:1000F0008528F7010830D000CE0DF70D4F087702A4
:100100000318F700F80DD00B7C280800B008031D79
:10011000CE29C030C8005720013084003208C90001
:100120003108C800D0010408CF005010831B5014C0
:10013000490EF038CB00CB07E23ECC00323ECE0079
:1001400049080F39CC07CC07CE07E93ECD00CD07D3
:10015000CD07480E0F39CD07CE07CD0DCE0DCE09F8
:10016000CE0D48080F39CE07CB0D0730CA000A3034
:10017000CE07CD03031CB828CD07CC03031CBC2835
:10018000CC07CB03031CC028CB07CA03031CC4281D
:100190004A308400831307304F054F1384074E30D5
:1001A000040203194F170008F700031DDF284F1B37
:1001B000DF284F1AF128CF19DF282030E228CF1589
:1001C0004F123030F707C9010408C8004910831BDB
:1001D00049147708D1006420480884008313491823
:1001E0008317840A4F1FCF2833308400831380087D
:1001F00003190C29C9010408C8004910831B4914BC
:100200000008D1006420480884008313491883172C
:10021000840A0319850AF7282030D1006420C830E9
:10022000C80057202F3003178D0000308F000310B7
:1002300004300313C8000B08C9008B13831603177F
:100240008C170C140000000003184D2983120C08B1
:100250007F390313CA0003170D080313CB000317DC
:100260000F080313CC004A08D10064204B08031781
:100270008D0003134C0803178F0083168C170C1482
:100280000000000083120313C80B47294A29831674
:1002900003174D296C298316031783120C0D0E0DBD
:1002A0007F390313CA0003170D080313CB0003178C
:1002B0000F080313CC004A08D10064204B08031731
:1002C0008D0003134C0803178F008D0A03198F0A42
:1002D00003100313C80B1E29C91B8B172E08C80057
:1002E0001330C9002030491E3030CA004808F700DA
:1002F000C81F8229F709F70A7708C8002D30CA00FD
:10030000C91749144808CE006430CF00712077081F
:10031000C80030307807CB004808CE000A30CF0044
:10032000712030307707CD0030307807CC004A0894
:10033000F70030304B020319A129C914C91B491514
:10034000B5294A08CB002030CA0030304C020319CE
:10035000AD294914C91BC914B529031D4914031D2E
:10036000B5294B08CC002030CB004919BC29C9184D
:10037000BF294918C229C5294A08D10064204B0861
:10038000D10064204C08D10064204D08D1006420C5
:100390002530D10064200F30B000CF29B0030B11FD
:1003A0008A110A121B283A308400831300080319AB
:1003B000EA290130F800BF30F7006400F70BDD29AF
:1003C000F80BDB294A30F700F70BE4290000640042
:1003D000800BD92908000B08B7008B13831603176D
:1003E0008C170C140000000083120C087F390319CD
:1003F0003E2A0313B80003170D080313B9000317AF
:100400000F080313BA00A7018B1BA7178B1338081B
:10041000D1006420A71B8B17390803178D00031325
:100420003A0803178F0083168C170C140000000085
:1004300083120C0D0E0D7F3903193E2A0313B800E9
:1004400003170D080313B90003170F080313BA00AD
:10045000A7018B1BA7178B133808D1006420A71B9B
:100460008B17390803178D0003133A0803178F0001
:100470008D0A03198F0A0313EE2903170313B71B01
:100480008B170800AF0183161F109F101F159F11B7
:100490001F1383121F139F1783169F1783121F1496
:1004A0000030F8001F08C73978049F008316010840
:1004B000C03907388100833083129000DF30831603
:1004C00085000F308600F930870000308800091061
:1004D0008910091583128601F80005389200F93059
:1004E00083169200831287100C309D00071197002D
:1004F000AE01B201B10195019B018F018E01A701EF
:100500008B1BA7178B133030C8005720A71B8B17E6
:100510000430BA00D321A7018B1BA7178B133030EF
:10052000C8005720A71B8B1764002030F700F70B7B
:10053000972A9A2AA7018B1BA7178B133030C80064
:100540005720A71B8B17A7018B1BA7178B133830BE
:10055000C8005720A71B8B17A7018B1BA7178B134E
:100560000130C8005720A71B8B170230BA00D321D7
:10057000A7018B1BA7178B130C30C8005720A71B94
:100580008B17A7018B1BA7178B130630C8005720AA
:10059000A71B8B175230B3006430B4007930B5001C
:1005A000A7018B1BA7178B138030C8005720A71BF0
:1005B0008B17463003178D0000308F000313EB219B
:1005C000A7018B1BA7178B13C030C8005720A71B90
:1005D0008B174F3003178D0000308F000313EB2172
:1005E0003C30B000E0308B048A110A121B2D8E3093
:1005F000F7003C08F8003B08F900FA01F808031D71
:100600000B2B7908F800F9010830F702F808031DF0
:100610000B2BF701132B0310F81B122BF90DF80D00
:10062000F7030B2BF81308003B080319842BC300B6
:100630003F080319842BC3070318252B7F30C302FF
:10064000031C842B0319842B292B8130C307031827
:10065000842B4308F700F801F901FA013C08C700B0
:10066000C7173D08C6003E08C5001830C300C401C6
:10067000451C522B4208FA07031C442BF90A031DA0
:10068000442BF80A0319C4174108F907031C4B2B24
:10069000F80A0319C4174008BD00BD173D08F80744
:1006A0000318C417C40DF80CF90CFA0CC70CC60CCF
:1006B000C50C0310C30B372B0130F7070318842B2D
:1006C000F81B692BC70DFA0DF90DF80DF703031987
:1006D000842BC71F7A2BFA0A031D7A2BF90A031DF4
:1006E0007A2BF80A031D7A2BF80CF90CFA0CF70A8E
:1006F0000319842B3C08C4004008C406C41F822B85
:10070000F817882BF813882BF701F801F901FA0183
:1007100008008E30F7003908F7023A08F9003B0864
:10072000F800F917F7080319A02B0310F908031DA7
:100730009C2BF8080319A02BF90CF80CF70B952B40
:10074000BA1FA72BF809F909F80A0319F90A0800D2
:100750002908AE00BC012E08BB00F7227A08BE00B3
:100760007908BD007808BC007708BB00C201C10150
:100770002030C0008230BF0014237A08BC00790802
:10078000BB007808BA007708B90089237908B80057
:100790007808B7003808F9003708F800F90CF80CA9
:1007A000F90CF80CF90C78089500F90C790C303933
:1007B000F7001708CF39770497000800B801B70190
:1007C0001F151F19E12B1E08FA0083161E0883123D
:1007D000B9001E08BA00BC003908BB00F7227A082D
:1007E000BE007908BD007808BC007708BB007F30E8
:1007F000C2006A30C1001C30C0008130BF00142329
:100800007A08BC007908BB007808BA007708B900FC
:1008100089237908B8007808B7003808FA010C1E57
:100820000F2C990037080C1E132C99003808B200C1
:100830003708B1002030B3006D30B4005630B50039
:1008400008002908AE00BC012E08BB00F7227A0878
:10085000BE007908BD007808BC007708BB00C20163
:10086000C1012030C0008230BF0014237A08BC00D0
:100870007908BB007808BA007708B900892379089D
:10088000B8007808B7003808F9003708F800F90C04
:10089000F80CF90CF80CF90C78089B00F90C790CA1
:1008A0003039F7001D08CF3977049D000800B801E2
:1008B000B7010F08FA000E08F7000F087A02031DAF
:1008C000592C7708B7007A08B8008F018E013808D4
:1008D000FA010C1E692C990037080C1E6D2C99002A
:1008E0003808B2003708B1005030B3005430B400BB
:1008F0006130B500080030302802F83E0318DE2CC5
:10090000083EE12CA823DE23DE2C21245724DE2CF4
:100910009B01AE01B201B101A7018B1BA7178B137D
:10092000C030C8005720A71B8B17343003178D0029
:1009300000308F000313EB213C30B0000330B700D0
:10094000B801370838020318BD2CC830BA00D321CB
:10095000B9013908633C031CBB2C85160130BA0071
:10096000D32185126400A530F700F70BB52CB82C05
:100970000000B90AA92CB80AA12C8F018E01DE2C27
:100980009501AE01B201B101A7018B1BA7178B1313
:10099000C030C8005720A71B8B173D3003178D00B0
:1009A00000308F000313EB213C30B000DE2CA82375
:1009B000DE2C2124DE2CDE23DE2C57248A110A12A1
:1009C000012D0A108A100A158207822C852C882C8A
:1009D000C02CD72CD92CDB2CDD2C8C1E032D2830E1
:1009E0002F07840083138C1EF32C1A0880002830F4
:1009F0002F078400831300080A3C031D022DAF015A
:100A00007B2C032DAF0A8A110A121C2D840183133B
:100A10001F3083050C3083169900A6309800903063
:100A20008312980083161F149F141F159F110730FF
:0C0A30009C008312422AED2C1B2D630059
:02400E00713F00
:00000001FF
;PIC16F877A
;CRC=026C  CREATED="24-mai-17 17:20"
